{
  "_format": "hh-sol-artifact-1",
  "contractName": "Raffle",
  "sourceName": "contracts/Raffle.sol",
  "abi": [
    {
      "inputs": [
        {
          "internalType": "address",
          "name": "_tokenAddress",
          "type": "address"
        },
        {
          "internalType": "uint256",
          "name": "_ticketPrice",
          "type": "uint256"
        },
        {
          "internalType": "uint256",
          "name": "_startTime",
          "type": "uint256"
        },
        {
          "internalType": "uint256",
          "name": "_endTime",
          "type": "uint256"
        },
        {
          "internalType": "string",
          "name": "_name",
          "type": "string"
        },
        {
          "internalType": "string",
          "name": "_imageUri",
          "type": "string"
        },
        {
          "internalType": "address",
          "name": "_intialOwner",
          "type": "address"
        }
      ],
      "stateMutability": "nonpayable",
      "type": "constructor"
    },
    {
      "inputs": [
        {
          "internalType": "address",
          "name": "owner",
          "type": "address"
        }
      ],
      "name": "OwnableInvalidOwner",
      "type": "error"
    },
    {
      "inputs": [
        {
          "internalType": "address",
          "name": "account",
          "type": "address"
        }
      ],
      "name": "OwnableUnauthorizedAccount",
      "type": "error"
    },
    {
      "anonymous": false,
      "inputs": [
        {
          "indexed": true,
          "internalType": "address",
          "name": "previousOwner",
          "type": "address"
        },
        {
          "indexed": true,
          "internalType": "address",
          "name": "newOwner",
          "type": "address"
        }
      ],
      "name": "OwnershipTransferred",
      "type": "event"
    },
    {
      "anonymous": false,
      "inputs": [
        {
          "indexed": true,
          "internalType": "address",
          "name": "winner",
          "type": "address"
        },
        {
          "indexed": false,
          "internalType": "uint256",
          "name": "index",
          "type": "uint256"
        }
      ],
      "name": "RaffleDrawn",
      "type": "event"
    },
    {
      "anonymous": false,
      "inputs": [
        {
          "indexed": true,
          "internalType": "address",
          "name": "participant",
          "type": "address"
        },
        {
          "indexed": false,
          "internalType": "uint256",
          "name": "ticketsBought",
          "type": "uint256"
        }
      ],
      "name": "TicketPurchased",
      "type": "event"
    },
    {
      "inputs": [
        {
          "internalType": "uint256",
          "name": "_numTickets",
          "type": "uint256"
        }
      ],
      "name": "buyTickets",
      "outputs": [],
      "stateMutability": "nonpayable",
      "type": "function"
    },
    {
      "inputs": [],
      "name": "drawRaffle",
      "outputs": [],
      "stateMutability": "nonpayable",
      "type": "function"
    },
    {
      "inputs": [],
      "name": "endTime",
      "outputs": [
        {
          "internalType": "uint256",
          "name": "",
          "type": "uint256"
        }
      ],
      "stateMutability": "view",
      "type": "function"
    },
    {
      "inputs": [],
      "name": "getParticipants",
      "outputs": [
        {
          "internalType": "address[]",
          "name": "",
          "type": "address[]"
        }
      ],
      "stateMutability": "view",
      "type": "function"
    },
    {
      "inputs": [],
      "name": "getRaffleStatus",
      "outputs": [
        {
          "internalType": "bool",
          "name": "",
          "type": "bool"
        },
        {
          "internalType": "bool",
          "name": "",
          "type": "bool"
        },
        {
          "internalType": "bool",
          "name": "",
          "type": "bool"
        }
      ],
      "stateMutability": "view",
      "type": "function"
    },
    {
      "inputs": [],
      "name": "getRemainingTime",
      "outputs": [
        {
          "internalType": "uint256",
          "name": "",
          "type": "uint256"
        }
      ],
      "stateMutability": "view",
      "type": "function"
    },
    {
      "inputs": [],
      "name": "getTicketPrice",
      "outputs": [
        {
          "internalType": "uint256",
          "name": "",
          "type": "uint256"
        }
      ],
      "stateMutability": "view",
      "type": "function"
    },
    {
      "inputs": [],
      "name": "getTokenBalance",
      "outputs": [
        {
          "internalType": "uint256",
          "name": "",
          "type": "uint256"
        }
      ],
      "stateMutability": "view",
      "type": "function"
    },
    {
      "inputs": [],
      "name": "getWinner",
      "outputs": [
        {
          "internalType": "address",
          "name": "",
          "type": "address"
        }
      ],
      "stateMutability": "view",
      "type": "function"
    },
    {
      "inputs": [
        {
          "internalType": "address",
          "name": "participant",
          "type": "address"
        }
      ],
      "name": "hasParticipated",
      "outputs": [
        {
          "internalType": "bool",
          "name": "",
          "type": "bool"
        }
      ],
      "stateMutability": "view",
      "type": "function"
    },
    {
      "inputs": [],
      "name": "imageUri",
      "outputs": [
        {
          "internalType": "string",
          "name": "",
          "type": "string"
        }
      ],
      "stateMutability": "view",
      "type": "function"
    },
    {
      "inputs": [],
      "name": "name",
      "outputs": [
        {
          "internalType": "string",
          "name": "",
          "type": "string"
        }
      ],
      "stateMutability": "view",
      "type": "function"
    },
    {
      "inputs": [],
      "name": "owner",
      "outputs": [
        {
          "internalType": "address",
          "name": "",
          "type": "address"
        }
      ],
      "stateMutability": "view",
      "type": "function"
    },
    {
      "inputs": [
        {
          "internalType": "uint256",
          "name": "",
          "type": "uint256"
        }
      ],
      "name": "participants",
      "outputs": [
        {
          "internalType": "address",
          "name": "",
          "type": "address"
        }
      ],
      "stateMutability": "view",
      "type": "function"
    },
    {
      "inputs": [],
      "name": "raffleDrawn",
      "outputs": [
        {
          "internalType": "bool",
          "name": "",
          "type": "bool"
        }
      ],
      "stateMutability": "view",
      "type": "function"
    },
    {
      "inputs": [],
      "name": "renounceOwnership",
      "outputs": [],
      "stateMutability": "nonpayable",
      "type": "function"
    },
    {
      "inputs": [],
      "name": "startTime",
      "outputs": [
        {
          "internalType": "uint256",
          "name": "",
          "type": "uint256"
        }
      ],
      "stateMutability": "view",
      "type": "function"
    },
    {
      "inputs": [],
      "name": "ticketPrice",
      "outputs": [
        {
          "internalType": "uint256",
          "name": "",
          "type": "uint256"
        }
      ],
      "stateMutability": "view",
      "type": "function"
    },
    {
      "inputs": [],
      "name": "token",
      "outputs": [
        {
          "internalType": "contract IERC20",
          "name": "",
          "type": "address"
        }
      ],
      "stateMutability": "view",
      "type": "function"
    },
    {
      "inputs": [
        {
          "internalType": "address",
          "name": "newOwner",
          "type": "address"
        }
      ],
      "name": "transferOwnership",
      "outputs": [],
      "stateMutability": "nonpayable",
      "type": "function"
    },
    {
      "inputs": [],
      "name": "winner",
      "outputs": [
        {
          "internalType": "address",
          "name": "",
          "type": "address"
        }
      ],
      "stateMutability": "view",
      "type": "function"
    }
  ],
  "bytecode": "0x60806040526000600860006101000a81548160ff0219169083151502179055503480156200002c57600080fd5b506040516200269638038062002696833981810160405281019062000052919062000458565b80600073ffffffffffffffffffffffffffffffffffffffff168173ffffffffffffffffffffffffffffffffffffffff1603620000c85760006040517f1e4fbdf7000000000000000000000000000000000000000000000000000000008152600401620000bf91906200055a565b60405180910390fd5b620000d9816200016160201b60201c565b5086600160006101000a81548173ffffffffffffffffffffffffffffffffffffffff021916908373ffffffffffffffffffffffffffffffffffffffff1602179055508560028190555084600381905550836004819055508260059081620001419190620007b8565b508160069081620001539190620007b8565b50505050505050506200089f565b60008060009054906101000a900473ffffffffffffffffffffffffffffffffffffffff169050816000806101000a81548173ffffffffffffffffffffffffffffffffffffffff021916908373ffffffffffffffffffffffffffffffffffffffff1602179055508173ffffffffffffffffffffffffffffffffffffffff168173ffffffffffffffffffffffffffffffffffffffff167f8be0079c531659141344cd1fd0a4f28419497f9722a3daafe3b4186f6b6457e060405160405180910390a35050565b6000604051905090565b600080fd5b600080fd5b600073ffffffffffffffffffffffffffffffffffffffff82169050919050565b6000620002668262000239565b9050919050565b620002788162000259565b81146200028457600080fd5b50565b60008151905062000298816200026d565b92915050565b6000819050919050565b620002b3816200029e565b8114620002bf57600080fd5b50565b600081519050620002d381620002a8565b92915050565b600080fd5b600080fd5b6000601f19601f8301169050919050565b7f4e487b7100000000000000000000000000000000000000000000000000000000600052604160045260246000fd5b6200032e82620002e3565b810181811067ffffffffffffffff8211171562000350576200034f620002f4565b5b80604052505050565b60006200036562000225565b905062000373828262000323565b919050565b600067ffffffffffffffff821115620003965762000395620002f4565b5b620003a182620002e3565b9050602081019050919050565b60005b83811015620003ce578082015181840152602081019050620003b1565b60008484015250505050565b6000620003f1620003eb8462000378565b62000359565b90508281526020810184848401111562000410576200040f620002de565b5b6200041d848285620003ae565b509392505050565b600082601f8301126200043d576200043c620002d9565b5b81516200044f848260208601620003da565b91505092915050565b600080600080600080600060e0888a0312156200047a57620004796200022f565b5b60006200048a8a828b0162000287565b97505060206200049d8a828b01620002c2565b9650506040620004b08a828b01620002c2565b9550506060620004c38a828b01620002c2565b945050608088015167ffffffffffffffff811115620004e757620004e662000234565b5b620004f58a828b0162000425565b93505060a088015167ffffffffffffffff81111562000519576200051862000234565b5b620005278a828b0162000425565b92505060c06200053a8a828b0162000287565b91505092959891949750929550565b620005548162000259565b82525050565b600060208201905062000571600083018462000549565b92915050565b600081519050919050565b7f4e487b7100000000000000000000000000000000000000000000000000000000600052602260045260246000fd5b60006002820490506001821680620005ca57607f821691505b602082108103620005e057620005df62000582565b5b50919050565b60008190508160005260206000209050919050565b60006020601f8301049050919050565b600082821b905092915050565b6000600883026200064a7fffffffffffffffffffffffffffffffffffffffffffffffffffffffffffffffff826200060b565b6200065686836200060b565b95508019841693508086168417925050509392505050565b6000819050919050565b600062000699620006936200068d846200029e565b6200066e565b6200029e565b9050919050565b6000819050919050565b620006b58362000678565b620006cd620006c482620006a0565b84845462000618565b825550505050565b600090565b620006e4620006d5565b620006f1818484620006aa565b505050565b5b8181101562000719576200070d600082620006da565b600181019050620006f7565b5050565b601f82111562000768576200073281620005e6565b6200073d84620005fb565b810160208510156200074d578190505b620007656200075c85620005fb565b830182620006f6565b50505b505050565b600082821c905092915050565b60006200078d600019846008026200076d565b1980831691505092915050565b6000620007a883836200077a565b9150826002028217905092915050565b620007c38262000577565b67ffffffffffffffff811115620007df57620007de620002f4565b5b620007eb8254620005b1565b620007f88282856200071d565b600060209050601f8311600181146200083057600084156200081b578287015190505b6200082785826200079a565b86555062000897565b601f1984166200084086620005e6565b60005b828110156200086a5784890151825560018201915060208501945060208101905062000843565b868310156200088a578489015162000886601f8916826200077a565b8355505b6001600288020188555050505b505050505050565b611de780620008af6000396000f3fe608060405234801561001057600080fd5b50600436106101375760003560e01c806378e97925116100b8578063b4fb3ee31161007c578063b4fb3ee3146102e6578063dd8af4cf14610316578063dfbf53ae14610336578063efb98bcf14610354578063f2fde38b14610372578063fc0c546a1461038e57610137565b806378e979251461025057806382b2e2571461026e57806387bb7ae01461028c5780638da5cb5b146102aa5780638e7ea5b2146102c857610137565b80632f366637116100ff5780632f366637146101be5780633197cbb6146101da57806335c1d349146101f85780635aa68ac014610228578063715018a61461024657610137565b806306fdde031461013c5780630bf82da41461015a5780631209b1f61461017857806318270a0f146101965780632275aea9146101b4575b600080fd5b6101446103ac565b60405161015191906112b4565b60405180910390f35b61016261043a565b60405161016f91906112b4565b60405180910390f35b6101806104c8565b60405161018d91906112ef565b60405180910390f35b61019e6104ce565b6040516101ab9190611325565b60405180910390f35b6101bc6104e1565b005b6101d860048036038101906101d39190611371565b610774565b005b6101e2610b89565b6040516101ef91906112ef565b60405180910390f35b610212600480360381019061020d9190611371565b610b8f565b60405161021f91906113df565b60405180910390f35b610230610bce565b60405161023d91906114b8565b60405180910390f35b61024e610c5c565b005b610258610c70565b60405161026591906112ef565b60405180910390f35b610276610c76565b60405161028391906112ef565b60405180910390f35b610294610d19565b6040516102a191906112ef565b60405180910390f35b6102b2610d23565b6040516102bf91906113df565b60405180910390f35b6102d0610d4c565b6040516102dd91906113df565b60405180910390f35b61030060048036038101906102fb9190611506565b610dc5565b60405161030d9190611325565b60405180910390f35b61031e610e6d565b60405161032d93929190611533565b60405180910390f35b61033e610eb7565b60405161034b91906113df565b60405180910390f35b61035c610edd565b60405161036991906112ef565b60405180910390f35b61038c60048036038101906103879190611506565b610f36565b005b610396610fbc565b6040516103a391906115c9565b60405180910390f35b600580546103b990611613565b80601f01602080910402602001604051908101604052809291908181526020018280546103e590611613565b80156104325780601f1061040757610100808354040283529160200191610432565b820191906000526020600020905b81548152906001019060200180831161041557829003601f168201915b505050505081565b6006805461044790611613565b80601f016020809104026020016040519081016040528092919081815260200182805461047390611613565b80156104c05780601f10610495576101008083540402835291602001916104c0565b820191906000526020600020905b8154815290600101906020018083116104a357829003601f168201915b505050505081565b60025481565b600860009054906101000a900460ff1681565b6104e9610fe2565b600454421161052d576040517f08c379a000000000000000000000000000000000000000000000000000000000815260040161052490611690565b60405180910390fd5b600860009054906101000a900460ff161561057d576040517f08c379a0000000000000000000000000000000000000000000000000000000008152600401610574906116fc565b60405180910390fd5b6000600780549050116105c5576040517f08c379a00000000000000000000000000000000000000000000000000000000081526004016105bc90611768565b60405180910390fd5b600060078054905042446040516020016105e09291906117a9565b6040516020818303038152906040528051906020012060001c6106039190611804565b90506007818154811061061957610618611835565b5b9060005260206000200160009054906101000a900473ffffffffffffffffffffffffffffffffffffffff16600860016101000a81548173ffffffffffffffffffffffffffffffffffffffff021916908373ffffffffffffffffffffffffffffffffffffffff1602179055506001600860006101000a81548160ff0219169083151502179055506107016040518060400160405280600f81526020017f53656c65637465642077696e6e65720000000000000000000000000000000000815250600860019054906101000a900473ffffffffffffffffffffffffffffffffffffffff1683611069565b600860019054906101000a900473ffffffffffffffffffffffffffffffffffffffff1673ffffffffffffffffffffffffffffffffffffffff167fbf66bfe545e8176b64a984c070df99249e89543392ea18cbb8cc0ea82bbe8af28260405161076991906112ef565b60405180910390a250565b600354421015801561078857506004544211155b6107c7576040517f08c379a00000000000000000000000000000000000000000000000000000000081526004016107be906118d6565b60405180910390fd5b6000811161080a576040517f08c379a000000000000000000000000000000000000000000000000000000000815260040161080190611968565b60405180910390fd5b60006002548261081a91906119b7565b905080600160009054906101000a900473ffffffffffffffffffffffffffffffffffffffff1673ffffffffffffffffffffffffffffffffffffffff166370a08231336040518263ffffffff1660e01b815260040161087891906113df565b602060405180830381865afa158015610895573d6000803e3d6000fd5b505050506040513d601f19601f820116820180604052508101906108b99190611a0e565b10156108fa576040517f08c379a00000000000000000000000000000000000000000000000000000000081526004016108f190611a87565b60405180910390fd5b80600160009054906101000a900473ffffffffffffffffffffffffffffffffffffffff1673ffffffffffffffffffffffffffffffffffffffff1663dd62ed3e33306040518363ffffffff1660e01b8152600401610958929190611aa7565b602060405180830381865afa158015610975573d6000803e3d6000fd5b505050506040513d601f19601f820116820180604052508101906109999190611a0e565b10156109da576040517f08c379a00000000000000000000000000000000000000000000000000000000081526004016109d190611b1c565b60405180910390fd5b600160009054906101000a900473ffffffffffffffffffffffffffffffffffffffff1673ffffffffffffffffffffffffffffffffffffffff166323b872dd3330846040518463ffffffff1660e01b8152600401610a3993929190611b3c565b6020604051808303816000875af1158015610a58573d6000803e3d6000fd5b505050506040513d601f19601f82011682018060405250810190610a7c9190611b9f565b610abb576040517f08c379a0000000000000000000000000000000000000000000000000000000008152600401610ab290611c18565b60405180910390fd5b60005b82811015610b36576007339080600181540180825580915050600190039060005260206000200160009091909190916101000a81548173ffffffffffffffffffffffffffffffffffffffff021916908373ffffffffffffffffffffffffffffffffffffffff1602179055508080600101915050610abe565b503373ffffffffffffffffffffffffffffffffffffffff167f0668f5b446eb814fe35b3206f43f14bd8567ba04ddaf7a3ee56516929ab22ccb83604051610b7d91906112ef565b60405180910390a25050565b60045481565b60078181548110610b9f57600080fd5b906000526020600020016000915054906101000a900473ffffffffffffffffffffffffffffffffffffffff1681565b60606007805480602002602001604051908101604052809291908181526020018280548015610c5257602002820191906000526020600020905b8160009054906101000a900473ffffffffffffffffffffffffffffffffffffffff1673ffffffffffffffffffffffffffffffffffffffff1681526020019060010190808311610c08575b5050505050905090565b610c64610fe2565b610c6e6000611108565b565b60035481565b6000600160009054906101000a900473ffffffffffffffffffffffffffffffffffffffff1673ffffffffffffffffffffffffffffffffffffffff166370a08231306040518263ffffffff1660e01b8152600401610cd391906113df565b602060405180830381865afa158015610cf0573d6000803e3d6000fd5b505050506040513d601f19601f82011682018060405250810190610d149190611a0e565b905090565b6000600254905090565b60008060009054906101000a900473ffffffffffffffffffffffffffffffffffffffff16905090565b6000600860009054906101000a900460ff16610d9d576040517f08c379a0000000000000000000000000000000000000000000000000000000008152600401610d9490611c84565b60405180910390fd5b600860019054906101000a900473ffffffffffffffffffffffffffffffffffffffff16905090565b600080600090505b600780549050811015610e62578273ffffffffffffffffffffffffffffffffffffffff1660078281548110610e0557610e04611835565b5b9060005260206000200160009054906101000a900473ffffffffffffffffffffffffffffffffffffffff1673ffffffffffffffffffffffffffffffffffffffff1603610e55576001915050610e68565b8080600101915050610dcd565b50600090505b919050565b6000806000806003544210158015610e8757506004544211155b90506000600454421190506000600860009054906101000a900460ff169050828282955095509550505050909192565b600860019054906101000a900473ffffffffffffffffffffffffffffffffffffffff1681565b60006004544210610f23576040517f08c379a0000000000000000000000000000000000000000000000000000000008152600401610f1a90611cf0565b60405180910390fd5b42600454610f319190611d10565b905090565b610f3e610fe2565b600073ffffffffffffffffffffffffffffffffffffffff168173ffffffffffffffffffffffffffffffffffffffff1603610fb05760006040517f1e4fbdf7000000000000000000000000000000000000000000000000000000008152600401610fa791906113df565b60405180910390fd5b610fb981611108565b50565b600160009054906101000a900473ffffffffffffffffffffffffffffffffffffffff1681565b610fea6111cc565b73ffffffffffffffffffffffffffffffffffffffff16611008610d23565b73ffffffffffffffffffffffffffffffffffffffff16146110675761102b6111cc565b6040517f118cdaa700000000000000000000000000000000000000000000000000000000815260040161105e91906113df565b60405180910390fd5b565b61110383838360405160240161108193929190611d44565b6040516020818303038152906040527f0d26b925000000000000000000000000000000000000000000000000000000007bffffffffffffffffffffffffffffffffffffffffffffffffffffffff19166020820180517bffffffffffffffffffffffffffffffffffffffffffffffffffffffff83818316178352505050506111d4565b505050565b60008060009054906101000a900473ffffffffffffffffffffffffffffffffffffffff169050816000806101000a81548173ffffffffffffffffffffffffffffffffffffffff021916908373ffffffffffffffffffffffffffffffffffffffff1602179055508173ffffffffffffffffffffffffffffffffffffffff168173ffffffffffffffffffffffffffffffffffffffff167f8be0079c531659141344cd1fd0a4f28419497f9722a3daafe3b4186f6b6457e060405160405180910390a35050565b600033905090565b6111eb816111e36111ee61120f565b63ffffffff16565b50565b60006a636f6e736f6c652e6c6f679050600080835160208501845afa505050565b61121a819050919050565b611222611d82565b565b600081519050919050565b600082825260208201905092915050565b60005b8381101561125e578082015181840152602081019050611243565b60008484015250505050565b6000601f19601f8301169050919050565b600061128682611224565b611290818561122f565b93506112a0818560208601611240565b6112a98161126a565b840191505092915050565b600060208201905081810360008301526112ce818461127b565b905092915050565b6000819050919050565b6112e9816112d6565b82525050565b600060208201905061130460008301846112e0565b92915050565b60008115159050919050565b61131f8161130a565b82525050565b600060208201905061133a6000830184611316565b92915050565b600080fd5b61134e816112d6565b811461135957600080fd5b50565b60008135905061136b81611345565b92915050565b60006020828403121561138757611386611340565b5b60006113958482850161135c565b91505092915050565b600073ffffffffffffffffffffffffffffffffffffffff82169050919050565b60006113c98261139e565b9050919050565b6113d9816113be565b82525050565b60006020820190506113f460008301846113d0565b92915050565b600081519050919050565b600082825260208201905092915050565b6000819050602082019050919050565b61142f816113be565b82525050565b60006114418383611426565b60208301905092915050565b6000602082019050919050565b6000611465826113fa565b61146f8185611405565b935061147a83611416565b8060005b838110156114ab5781516114928882611435565b975061149d8361144d565b92505060018101905061147e565b5085935050505092915050565b600060208201905081810360008301526114d2818461145a565b905092915050565b6114e3816113be565b81146114ee57600080fd5b50565b600081359050611500816114da565b92915050565b60006020828403121561151c5761151b611340565b5b600061152a848285016114f1565b91505092915050565b60006060820190506115486000830186611316565b6115556020830185611316565b6115626040830184611316565b949350505050565b6000819050919050565b600061158f61158a6115858461139e565b61156a565b61139e565b9050919050565b60006115a182611574565b9050919050565b60006115b382611596565b9050919050565b6115c3816115a8565b82525050565b60006020820190506115de60008301846115ba565b92915050565b7f4e487b7100000000000000000000000000000000000000000000000000000000600052602260045260246000fd5b6000600282049050600182168061162b57607f821691505b60208210810361163e5761163d6115e4565b5b50919050565b7f526166666c653a20526166666c6520686173206e6f7420656e64656420796574600082015250565b600061167a60208361122f565b915061168582611644565b602082019050919050565b600060208201905081810360008301526116a98161166d565b9050919050565b7f526166666c653a2057696e6e657220616c726561647920647261776e00000000600082015250565b60006116e6601c8361122f565b91506116f1826116b0565b602082019050919050565b60006020820190508181036000830152611715816116d9565b9050919050565b7f526166666c653a204e6f207061727469636970616e7473000000000000000000600082015250565b600061175260178361122f565b915061175d8261171c565b602082019050919050565b6000602082019050818103600083015261178181611745565b9050919050565b6000819050919050565b6117a361179e826112d6565b611788565b82525050565b60006117b58285611792565b6020820191506117c58284611792565b6020820191508190509392505050565b7f4e487b7100000000000000000000000000000000000000000000000000000000600052601260045260246000fd5b600061180f826112d6565b915061181a836112d6565b92508261182a576118296117d5565b5b828206905092915050565b7f4e487b7100000000000000000000000000000000000000000000000000000000600052603260045260246000fd5b7f526166666c653a204e6f7420647572696e672074686520726166666c6520706560008201527f72696f6400000000000000000000000000000000000000000000000000000000602082015250565b60006118c060248361122f565b91506118cb82611864565b604082019050919050565b600060208201905081810360008301526118ef816118b3565b9050919050565b7f526166666c653a204e756d626572206f66207469636b657473206d757374206260008201527f652067726561746572207468616e203000000000000000000000000000000000602082015250565b600061195260308361122f565b915061195d826118f6565b604082019050919050565b6000602082019050818103600083015261198181611945565b9050919050565b7f4e487b7100000000000000000000000000000000000000000000000000000000600052601160045260246000fd5b60006119c2826112d6565b91506119cd836112d6565b92508282026119db816112d6565b915082820484148315176119f2576119f1611988565b5b5092915050565b600081519050611a0881611345565b92915050565b600060208284031215611a2457611a23611340565b5b6000611a32848285016119f9565b91505092915050565b7f526166666c653a20496e73756666696369656e742062616c616e636500000000600082015250565b6000611a71601c8361122f565b9150611a7c82611a3b565b602082019050919050565b60006020820190508181036000830152611aa081611a64565b9050919050565b6000604082019050611abc60008301856113d0565b611ac960208301846113d0565b9392505050565b7f526166666c653a20546f6b656e206e6f7420617070726f766564000000000000600082015250565b6000611b06601a8361122f565b9150611b1182611ad0565b602082019050919050565b60006020820190508181036000830152611b3581611af9565b9050919050565b6000606082019050611b5160008301866113d0565b611b5e60208301856113d0565b611b6b60408301846112e0565b949350505050565b611b7c8161130a565b8114611b8757600080fd5b50565b600081519050611b9981611b73565b92915050565b600060208284031215611bb557611bb4611340565b5b6000611bc384828501611b8a565b91505092915050565b7f526166666c653a20546f6b656e207472616e73666572206661696c6564000000600082015250565b6000611c02601d8361122f565b9150611c0d82611bcc565b602082019050919050565b60006020820190508181036000830152611c3181611bf5565b9050919050565b7f526166666c653a2057696e6e6572206e6f7420647261776e2079657400000000600082015250565b6000611c6e601c8361122f565b9150611c7982611c38565b602082019050919050565b60006020820190508181036000830152611c9d81611c61565b9050919050565b7f526166666c653a20526166666c652068617320656e6465640000000000000000600082015250565b6000611cda60188361122f565b9150611ce582611ca4565b602082019050919050565b60006020820190508181036000830152611d0981611ccd565b9050919050565b6000611d1b826112d6565b9150611d26836112d6565b9250828203905081811115611d3e57611d3d611988565b5b92915050565b60006060820190508181036000830152611d5e818661127b565b9050611d6d60208301856113d0565b611d7a60408301846112e0565b949350505050565b7f4e487b7100000000000000000000000000000000000000000000000000000000600052605160045260246000fdfea264697066735822122050b1928f7dcb2193dec9eb740c8facec5c5ae6f1271eb7749df8b08c95e2fa4564736f6c63430008180033",
  "linkReferences": {},
  "deployedLinkReferences": {}
}